{
  "_format": "hh-sol-artifact-1",
  "contractName": "GraduationBoard",
  "sourceName": "contracts/GraduationBoard.sol",
  "abi": [
    {
      "inputs": [
        {
          "internalType": "address",
          "name": "graduate",
          "type": "address"
        }
      ],
      "name": "getMessages",
      "outputs": [
        {
          "components": [
            {
              "internalType": "address",
              "name": "sender",
              "type": "address"
            },
            {
              "internalType": "string",
              "name": "content",
              "type": "string"
            },
            {
              "internalType": "uint256",
              "name": "timestamp",
              "type": "uint256"
            }
          ],
          "internalType": "struct GraduationBoard.Message[]",
          "name": "",
          "type": "tuple[]"
        }
      ],
      "stateMutability": "view",
      "type": "function"
    },
    {
      "inputs": [
        {
          "internalType": "address",
          "name": "",
          "type": "address"
        }
      ],
      "name": "graduates",
      "outputs": [
        {
          "internalType": "string",
          "name": "name",
          "type": "string"
        },
        {
          "internalType": "string",
          "name": "school",
          "type": "string"
        },
        {
          "internalType": "bool",
          "name": "registered",
          "type": "bool"
        }
      ],
      "stateMutability": "view",
      "type": "function"
    },
    {
      "inputs": [
        {
          "internalType": "address",
          "name": "graduate",
          "type": "address"
        },
        {
          "internalType": "string",
          "name": "content",
          "type": "string"
        }
      ],
      "name": "leaveMessage",
      "outputs": [],
      "stateMutability": "payable",
      "type": "function"
    },
    {
      "inputs": [
        {
          "internalType": "address",
          "name": "",
          "type": "address"
        },
        {
          "internalType": "uint256",
          "name": "",
          "type": "uint256"
        }
      ],
      "name": "messages",
      "outputs": [
        {
          "internalType": "address",
          "name": "sender",
          "type": "address"
        },
        {
          "internalType": "string",
          "name": "content",
          "type": "string"
        },
        {
          "internalType": "uint256",
          "name": "timestamp",
          "type": "uint256"
        }
      ],
      "stateMutability": "view",
      "type": "function"
    },
    {
      "inputs": [
        {
          "internalType": "string",
          "name": "name",
          "type": "string"
        },
        {
          "internalType": "string",
          "name": "school",
          "type": "string"
        }
      ],
      "name": "registerGraduate",
      "outputs": [],
      "stateMutability": "nonpayable",
      "type": "function"
    }
  ],
  "bytecode": "0x6080604052348015600f57600080fd5b506111d98061001f6000396000f3fe60806040526004361061004a5760003560e01c8063178f14a91461004f57806343918ec31461008e57806392dd97d7146100b7578063b2f71322146100d3578063c45d9bea14610110575b600080fd5b34801561005b57600080fd5b5061007660048036038101906100719190610859565b61014f565b60405161008593929190610931565b60405180910390f35b34801561009a57600080fd5b506100b560048036038101906100b09190610aab565b610296565b005b6100d160048036038101906100cc9190610b23565b6103d4565b005b3480156100df57600080fd5b506100fa60048036038101906100f59190610859565b610568565b6040516101079190610d03565b60405180910390f35b34801561011c57600080fd5b5061013760048036038101906101329190610d51565b6106f8565b60405161014693929190610daf565b60405180910390f35b600060205280600052604060002060009150905080600001805461017290610e1c565b80601f016020809104026020016040519081016040528092919081815260200182805461019e90610e1c565b80156101eb5780601f106101c0576101008083540402835291602001916101eb565b820191906000526020600020905b8154815290600101906020018083116101ce57829003601f168201915b50505050509080600101805461020090610e1c565b80601f016020809104026020016040519081016040528092919081815260200182805461022c90610e1c565b80156102795780601f1061024e57610100808354040283529160200191610279565b820191906000526020600020905b81548152906001019060200180831161025c57829003601f168201915b5050505050908060020160009054906101000a900460ff16905083565b6000803373ffffffffffffffffffffffffffffffffffffffff1673ffffffffffffffffffffffffffffffffffffffff16815260200190815260200160002060020160009054906101000a900460ff1615610325576040517f08c379a000000000000000000000000000000000000000000000000000000000815260040161031c90610e99565b60405180910390fd5b6040518060600160405280838152602001828152602001600115158152506000803373ffffffffffffffffffffffffffffffffffffffff1673ffffffffffffffffffffffffffffffffffffffff16815260200190815260200160002060008201518160000190816103969190611065565b5060208201518160010190816103ac9190611065565b5060408201518160020160006101000a81548160ff0219169083151502179055509050505050565b6000808373ffffffffffffffffffffffffffffffffffffffff1673ffffffffffffffffffffffffffffffffffffffff16815260200190815260200160002060020160009054906101000a900460ff16610462576040517f08c379a000000000000000000000000000000000000000000000000000000000815260040161045990611183565b60405180910390fd5b600160008373ffffffffffffffffffffffffffffffffffffffff1673ffffffffffffffffffffffffffffffffffffffff16815260200190815260200160002060405180606001604052803373ffffffffffffffffffffffffffffffffffffffff16815260200183815260200142815250908060018154018082558091505060019003906000526020600020906003020160009091909190915060008201518160000160006101000a81548173ffffffffffffffffffffffffffffffffffffffff021916908373ffffffffffffffffffffffffffffffffffffffff16021790555060208201518160010190816105579190611065565b506040820151816002015550505050565b6060600160008373ffffffffffffffffffffffffffffffffffffffff1673ffffffffffffffffffffffffffffffffffffffff168152602001908152602001600020805480602002602001604051908101604052809291908181526020016000905b828210156106ed57838290600052602060002090600302016040518060600160405290816000820160009054906101000a900473ffffffffffffffffffffffffffffffffffffffff1673ffffffffffffffffffffffffffffffffffffffff1673ffffffffffffffffffffffffffffffffffffffff16815260200160018201805461065290610e1c565b80601f016020809104026020016040519081016040528092919081815260200182805461067e90610e1c565b80156106cb5780601f106106a0576101008083540402835291602001916106cb565b820191906000526020600020905b8154815290600101906020018083116106ae57829003601f168201915b50505050508152602001600282015481525050815260200190600101906105c9565b505050509050919050565b6001602052816000526040600020818154811061071457600080fd5b9060005260206000209060030201600091509150508060000160009054906101000a900473ffffffffffffffffffffffffffffffffffffffff169080600101805461075e90610e1c565b80601f016020809104026020016040519081016040528092919081815260200182805461078a90610e1c565b80156107d75780601f106107ac576101008083540402835291602001916107d7565b820191906000526020600020905b8154815290600101906020018083116107ba57829003601f168201915b5050505050908060020154905083565b6000604051905090565b600080fd5b600080fd5b600073ffffffffffffffffffffffffffffffffffffffff82169050919050565b6000610826826107fb565b9050919050565b6108368161081b565b811461084157600080fd5b50565b6000813590506108538161082d565b92915050565b60006020828403121561086f5761086e6107f1565b5b600061087d84828501610844565b91505092915050565b600081519050919050565b600082825260208201905092915050565b60005b838110156108c05780820151818401526020810190506108a5565b60008484015250505050565b6000601f19601f8301169050919050565b60006108e882610886565b6108f28185610891565b93506109028185602086016108a2565b61090b816108cc565b840191505092915050565b60008115159050919050565b61092b81610916565b82525050565b6000606082019050818103600083015261094b81866108dd565b9050818103602083015261095f81856108dd565b905061096e6040830184610922565b949350505050565b600080fd5b600080fd5b7f4e487b7100000000000000000000000000000000000000000000000000000000600052604160045260246000fd5b6109b8826108cc565b810181811067ffffffffffffffff821117156109d7576109d6610980565b5b80604052505050565b60006109ea6107e7565b90506109f682826109af565b919050565b600067ffffffffffffffff821115610a1657610a15610980565b5b610a1f826108cc565b9050602081019050919050565b82818337600083830152505050565b6000610a4e610a49846109fb565b6109e0565b905082815260208101848484011115610a6a57610a6961097b565b5b610a75848285610a2c565b509392505050565b600082601f830112610a9257610a91610976565b5b8135610aa2848260208601610a3b565b91505092915050565b60008060408385031215610ac257610ac16107f1565b5b600083013567ffffffffffffffff811115610ae057610adf6107f6565b5b610aec85828601610a7d565b925050602083013567ffffffffffffffff811115610b0d57610b0c6107f6565b5b610b1985828601610a7d565b9150509250929050565b60008060408385031215610b3a57610b396107f1565b5b6000610b4885828601610844565b925050602083013567ffffffffffffffff811115610b6957610b686107f6565b5b610b7585828601610a7d565b9150509250929050565b600081519050919050565b600082825260208201905092915050565b6000819050602082019050919050565b610bb48161081b565b82525050565b600082825260208201905092915050565b6000610bd682610886565b610be08185610bba565b9350610bf08185602086016108a2565b610bf9816108cc565b840191505092915050565b6000819050919050565b610c1781610c04565b82525050565b6000606083016000830151610c356000860182610bab565b5060208301518482036020860152610c4d8282610bcb565b9150506040830151610c626040860182610c0e565b508091505092915050565b6000610c798383610c1d565b905092915050565b6000602082019050919050565b6000610c9982610b7f565b610ca38185610b8a565b935083602082028501610cb585610b9b565b8060005b85811015610cf15784840389528151610cd28582610c6d565b9450610cdd83610c81565b925060208a01995050600181019050610cb9565b50829750879550505050505092915050565b60006020820190508181036000830152610d1d8184610c8e565b905092915050565b610d2e81610c04565b8114610d3957600080fd5b50565b600081359050610d4b81610d25565b92915050565b60008060408385031215610d6857610d676107f1565b5b6000610d7685828601610844565b9250506020610d8785828601610d3c565b9150509250929050565b610d9a8161081b565b82525050565b610da981610c04565b82525050565b6000606082019050610dc46000830186610d91565b8181036020830152610dd681856108dd565b9050610de56040830184610da0565b949350505050565b7f4e487b7100000000000000000000000000000000000000000000000000000000600052602260045260246000fd5b60006002820490506001821680610e3457607f821691505b602082108103610e4757610e46610ded565b5b50919050565b7f416c726561647920726567697374657265640000000000000000000000000000600082015250565b6000610e83601283610891565b9150610e8e82610e4d565b602082019050919050565b60006020820190508181036000830152610eb281610e76565b9050919050565b60008190508160005260206000209050919050565b60006020601f8301049050919050565b600082821b905092915050565b600060088302610f1b7fffffffffffffffffffffffffffffffffffffffffffffffffffffffffffffffff82610ede565b610f258683610ede565b95508019841693508086168417925050509392505050565b6000819050919050565b6000610f62610f5d610f5884610c04565b610f3d565b610c04565b9050919050565b6000819050919050565b610f7c83610f47565b610f90610f8882610f69565b848454610eeb565b825550505050565b600090565b610fa5610f98565b610fb0818484610f73565b505050565b5b81811015610fd457610fc9600082610f9d565b600181019050610fb6565b5050565b601f82111561101957610fea81610eb9565b610ff384610ece565b81016020851015611002578190505b61101661100e85610ece565b830182610fb5565b50505b505050565b600082821c905092915050565b600061103c6000198460080261101e565b1980831691505092915050565b6000611055838361102b565b9150826002028217905092915050565b61106e82610886565b67ffffffffffffffff81111561108757611086610980565b5b6110918254610e1c565b61109c828285610fd8565b600060209050601f8311600181146110cf57600084156110bd578287015190505b6110c78582611049565b86555061112f565b601f1984166110dd86610eb9565b60005b82811015611105578489015182556001820191506020850194506020810190506110e0565b86831015611122578489015161111e601f89168261102b565b8355505b6001600288020188555050505b505050505050565b7f4e6f742061206772616475617465000000000000000000000000000000000000600082015250565b600061116d600e83610891565b915061117882611137565b602082019050919050565b6000602082019050818103600083015261119c81611160565b905091905056fea2646970667358221220e1502158648f295eadc021aaea776c6f853b6f21ceebc5f5879c6bc84f00bb9e64736f6c634300081c0033",
  "linkReferences": {},
  "deployedLinkReferences": {}
}